{
  "contractName": "TodoList",
  "abi": [
    {
      "constant": true,
      "inputs": [
        {
          "name": "",
          "type": "uint256"
        }
      ],
      "name": "tasks",
      "outputs": [
        {
          "name": "id",
          "type": "uint256"
        },
        {
          "name": "content",
          "type": "string"
        },
        {
          "name": "completed",
          "type": "bool"
        }
      ],
      "payable": false,
      "stateMutability": "view",
      "type": "function"
    },
    {
      "constant": true,
      "inputs": [],
      "name": "taskCount",
      "outputs": [
        {
          "name": "",
          "type": "uint256"
        }
      ],
      "payable": false,
      "stateMutability": "view",
      "type": "function"
    },
    {
      "inputs": [],
      "payable": false,
      "stateMutability": "nonpayable",
      "type": "constructor"
    },
    {
      "constant": false,
      "inputs": [
        {
          "name": "id",
          "type": "uint256",
          "indexed": false
        },
        {
          "indexed": false,
          "name": "content",
          "type": "string"
        },
        {
          "indexed": false,
          "name": "completed",
          "type": "bool"
        }
      ],
      "name": "TaskCreated",
      "outputs": [],
      "payable": false,
      "stateMutability": "nonpayable",
      "type": "event",
      "anonymous": false
    },
    {
      "constant": false,
      "inputs": [
        {
          "name": "_content",
          "type": "string"
        }
      ],
      "name": "createTask",
      "outputs": [],
      "payable": false,
      "stateMutability": "nonpayable",
      "type": "function"
    }
  ],
  "bytecode": "0x60806040526000805534801561001457600080fd5b5060408051808201909152601c81527f436865636b206f75742064617070756e69766572736974792e636f6d00000000602082015261005b90640100000000610060810204565b61021f565b60008054600190810180835560408051606081018252828152602080820187815282840187905293865284815291909420845181559151805192936100ad93908501929190910190610184565b5060408201518160020160006101000a81548160ff0219169083151502179055509050507f05d0fb833127fc08168556d0e7ca9554fc3f6bc843b3b7d2bf1c35aea6bab660600054826000604051808481526020018060200183151515158152602001828103825284818151815260200191508051906020019080838360005b8381101561014557818101518382015260200161012d565b50505050905090810190601f1680156101725780820380516001836020036101000a031916815260200191505b5094505050505060405180910390a150565b828054600181600116156101000203166002900490600052602060002090601f016020900481019282601f106101c557805160ff19168380011785556101f2565b828001600101855582156101f2579182015b828111156101f25782518255916020019190600101906101d7565b506101fe929150610202565b5090565b61021c91905b808211156101fe5760008155600101610208565b90565b61048b8061022e6000396000f3fe6080604052600436106100565763ffffffff7c0100000000000000000000000000000000000000000000000000000000600035041663111002aa811461005b5780638d97767214610110578063b6cb58a5146101c4575b600080fd5b34801561006757600080fd5b5061010e6004803603602081101561007e57600080fd5b81019060208101813564010000000081111561009957600080fd5b8201836020820111156100ab57600080fd5b803590602001918460018302840111640100000000831117156100cd57600080fd5b91908080601f0160208091040260200160405190810160405280939291908181526020018383808284376000920191909152509295506101eb945050505050565b005b34801561011c57600080fd5b5061013a6004803603602081101561013357600080fd5b503561030f565b604051808481526020018060200183151515158152602001828103825284818151815260200191508051906020019080838360005b8381101561018757818101518382015260200161016f565b50505050905090810190601f1680156101b45780820380516001836020036101000a031916815260200191505b5094505050505060405180910390f35b3480156101d057600080fd5b506101d96103be565b60408051918252519081900360200190f35b6000805460019081018083556040805160608101825282815260208082018781528284018790529386528481529190942084518155915180519293610238939085019291909101906103c4565b5060408201518160020160006101000a81548160ff0219169083151502179055509050507f05d0fb833127fc08168556d0e7ca9554fc3f6bc843b3b7d2bf1c35aea6bab660600054826000604051808481526020018060200183151515158152602001828103825284818151815260200191508051906020019080838360005b838110156102d05781810151838201526020016102b8565b50505050905090810190601f1680156102fd5780820380516001836020036101000a031916815260200191505b5094505050505060405180910390a150565b600160208181526000928352604092839020805481840180548651600296821615610100026000190190911695909504601f810185900485028601850190965285855290949193929091908301828280156103ab5780601f10610380576101008083540402835291602001916103ab565b820191906000526020600020905b81548152906001019060200180831161038e57829003601f168201915b5050506002909301549192505060ff1683565b60005481565b828054600181600116156101000203166002900490600052602060002090601f016020900481019282601f1061040557805160ff1916838001178555610432565b82800160010185558215610432579182015b82811115610432578251825591602001919060010190610417565b5061043e929150610442565b5090565b61045c91905b8082111561043e5760008155600101610448565b9056fea165627a7a72305820704252dcd4e1a9b6eb199227a501c2106e5be7f1f41c18ac54824cba4b3822360029",
  "source": "pragma solidity ^0.5.0;\n\ncontract TodoList {\n  uint public taskCount = 0;\n\n  struct Task {\n    uint id;\n    string content;\n    bool completed;\n  }\n\n  mapping(uint => Task) public tasks;\n\n  event TaskCreated(\n    uint id,\n    string content,\n    bool completed\n  );\n\n  constructor() public {\n    createTask(\"Check out dappuniversity.com\");\n  }\n\n  function createTask(string memory _content) public {\n    taskCount ++;\n    tasks[taskCount] = Task(taskCount, _content, false);\n    emit TaskCreated(taskCount, _content, false);\n  }\n\n}",
  "sourcePath": "/Volumes/MACDATA/Learn/Ethereum/eth-todo-list/contracts/TodoList.sol",
  "compiler": {
    "name": "solc",
    "version": "0.5.0+commit.1d4f565a.Emscripten.clang"
  },
  "schemaVersion": "3.0.9",
  "updatedAt": "2019-05-12T19:02:11.550Z",
  "devdoc": {
    "methods": {}
  },
  "userdoc": {
    "methods": {}
  }
}